{
  "_format": "hh-sol-artifact-1",
  "contractName": "CertiTrust",
  "sourceName": "contracts/CertiTrust.sol",
  "abi": [
    {
      "inputs": [],
      "name": "InvalidInitialization",
      "type": "error"
    },
    {
      "inputs": [],
      "name": "NotInitializing",
      "type": "error"
    },
    {
      "anonymous": false,
      "inputs": [
        {
          "indexed": true,
          "internalType": "address",
          "name": "student",
          "type": "address"
        }
      ],
      "name": "CertificateIssued",
      "type": "event"
    },
    {
      "anonymous": false,
      "inputs": [
        {
          "indexed": false,
          "internalType": "string",
          "name": "courseId",
          "type": "string"
        },
        {
          "indexed": false,
          "internalType": "string",
          "name": "courseName",
          "type": "string"
        },
        {
          "indexed": false,
          "internalType": "uint256",
          "name": "credit",
          "type": "uint256"
        }
      ],
      "name": "CourseAdded",
      "type": "event"
    },
    {
      "anonymous": false,
      "inputs": [
        {
          "indexed": true,
          "internalType": "address",
          "name": "student",
          "type": "address"
        },
        {
          "indexed": false,
          "internalType": "string",
          "name": "courseId",
          "type": "string"
        },
        {
          "indexed": false,
          "internalType": "uint8",
          "name": "grade",
          "type": "uint8"
        },
        {
          "indexed": false,
          "internalType": "string",
          "name": "ipfsHash",
          "type": "string"
        }
      ],
      "name": "GradeApproved",
      "type": "event"
    },
    {
      "anonymous": false,
      "inputs": [
        {
          "indexed": true,
          "internalType": "address",
          "name": "student",
          "type": "address"
        },
        {
          "indexed": false,
          "internalType": "string",
          "name": "courseId",
          "type": "string"
        },
        {
          "indexed": false,
          "internalType": "uint8",
          "name": "grade",
          "type": "uint8"
        }
      ],
      "name": "GradeAssigned",
      "type": "event"
    },
    {
      "anonymous": false,
      "inputs": [
        {
          "indexed": false,
          "internalType": "uint64",
          "name": "version",
          "type": "uint64"
        }
      ],
      "name": "Initialized",
      "type": "event"
    },
    {
      "anonymous": false,
      "inputs": [
        {
          "indexed": true,
          "internalType": "address",
          "name": "user",
          "type": "address"
        },
        {
          "indexed": false,
          "internalType": "string",
          "name": "email",
          "type": "string"
        },
        {
          "indexed": false,
          "internalType": "string",
          "name": "userRole",
          "type": "string"
        }
      ],
      "name": "RoleAdded",
      "type": "event"
    },
    {
      "anonymous": false,
      "inputs": [
        {
          "indexed": true,
          "internalType": "address",
          "name": "user",
          "type": "address"
        }
      ],
      "name": "RoleRevoked",
      "type": "event"
    },
    {
      "anonymous": false,
      "inputs": [
        {
          "indexed": false,
          "internalType": "string",
          "name": "courseId",
          "type": "string"
        },
        {
          "indexed": false,
          "internalType": "string",
          "name": "sectionId",
          "type": "string"
        },
        {
          "indexed": false,
          "internalType": "address",
          "name": "instructor",
          "type": "address"
        }
      ],
      "name": "SectionAssigned",
      "type": "event"
    },
    {
      "anonymous": false,
      "inputs": [
        {
          "indexed": true,
          "internalType": "address",
          "name": "student",
          "type": "address"
        },
        {
          "indexed": false,
          "internalType": "string",
          "name": "courseId",
          "type": "string"
        },
        {
          "indexed": false,
          "internalType": "string",
          "name": "sectionId",
          "type": "string"
        }
      ],
      "name": "StudentEnrolled",
      "type": "event"
    },
    {
      "inputs": [
        {
          "internalType": "address",
          "name": "newAdmin",
          "type": "address"
        }
      ],
      "name": "addAdmin",
      "outputs": [],
      "stateMutability": "nonpayable",
      "type": "function"
    },
    {
      "inputs": [
        {
          "internalType": "string",
          "name": "courseId",
          "type": "string"
        },
        {
          "internalType": "string",
          "name": "courseName",
          "type": "string"
        },
        {
          "internalType": "uint256",
          "name": "credit",
          "type": "uint256"
        }
      ],
      "name": "addCourse",
      "outputs": [],
      "stateMutability": "nonpayable",
      "type": "function"
    },
    {
      "inputs": [
        {
          "internalType": "address",
          "name": "user",
          "type": "address"
        },
        {
          "internalType": "string",
          "name": "email",
          "type": "string"
        },
        {
          "internalType": "string",
          "name": "userRole",
          "type": "string"
        }
      ],
      "name": "addRole",
      "outputs": [],
      "stateMutability": "nonpayable",
      "type": "function"
    },
    {
      "inputs": [
        {
          "internalType": "address",
          "name": "student",
          "type": "address"
        },
        {
          "internalType": "string",
          "name": "studentId",
          "type": "string"
        },
        {
          "internalType": "string",
          "name": "studentName",
          "type": "string"
        },
        {
          "internalType": "string",
          "name": "enrolledProgram",
          "type": "string"
        },
        {
          "internalType": "uint256",
          "name": "maxCredit",
          "type": "uint256"
        }
      ],
      "name": "addStudent",
      "outputs": [],
      "stateMutability": "nonpayable",
      "type": "function"
    },
    {
      "inputs": [
        {
          "internalType": "uint256",
          "name": "",
          "type": "uint256"
        }
      ],
      "name": "admins",
      "outputs": [
        {
          "internalType": "address",
          "name": "",
          "type": "address"
        }
      ],
      "stateMutability": "view",
      "type": "function"
    },
    {
      "inputs": [
        {
          "internalType": "uint256",
          "name": "",
          "type": "uint256"
        }
      ],
      "name": "allStudents",
      "outputs": [
        {
          "internalType": "string",
          "name": "studentId",
          "type": "string"
        },
        {
          "internalType": "string",
          "name": "studentName",
          "type": "string"
        },
        {
          "internalType": "string",
          "name": "enrolledProgram",
          "type": "string"
        },
        {
          "internalType": "uint256",
          "name": "maxCredit",
          "type": "uint256"
        },
        {
          "internalType": "uint256",
          "name": "creditEarned",
          "type": "uint256"
        },
        {
          "internalType": "string",
          "name": "docHash",
          "type": "string"
        }
      ],
      "stateMutability": "view",
      "type": "function"
    },
    {
      "inputs": [
        {
          "internalType": "address",
          "name": "student",
          "type": "address"
        },
        {
          "internalType": "string",
          "name": "courseId",
          "type": "string"
        },
        {
          "internalType": "string",
          "name": "sectionId",
          "type": "string"
        },
        {
          "internalType": "string",
          "name": "ipfsHash",
          "type": "string"
        }
      ],
      "name": "approveGrade",
      "outputs": [],
      "stateMutability": "nonpayable",
      "type": "function"
    },
    {
      "inputs": [
        {
          "internalType": "string",
          "name": "courseId",
          "type": "string"
        },
        {
          "internalType": "string",
          "name": "sectionId",
          "type": "string"
        },
        {
          "internalType": "address",
          "name": "faculty",
          "type": "address"
        },
        {
          "internalType": "uint256",
          "name": "maxStudents",
          "type": "uint256"
        }
      ],
      "name": "assignCourse",
      "outputs": [],
      "stateMutability": "nonpayable",
      "type": "function"
    },
    {
      "inputs": [
        {
          "internalType": "address",
          "name": "student",
          "type": "address"
        },
        {
          "internalType": "string",
          "name": "courseId",
          "type": "string"
        },
        {
          "internalType": "string",
          "name": "sectionId",
          "type": "string"
        },
        {
          "internalType": "uint8",
          "name": "grade",
          "type": "uint8"
        }
      ],
      "name": "assignGrade",
      "outputs": [],
      "stateMutability": "nonpayable",
      "type": "function"
    },
    {
      "inputs": [
        {
          "internalType": "string",
          "name": "",
          "type": "string"
        }
      ],
      "name": "courses",
      "outputs": [
        {
          "internalType": "string",
          "name": "courseId",
          "type": "string"
        },
        {
          "internalType": "string",
          "name": "courseName",
          "type": "string"
        },
        {
          "internalType": "uint256",
          "name": "credit",
          "type": "uint256"
        }
      ],
      "stateMutability": "view",
      "type": "function"
    },
    {
      "inputs": [
        {
          "internalType": "string",
          "name": "courseId",
          "type": "string"
        },
        {
          "internalType": "string",
          "name": "sectionId",
          "type": "string"
        }
      ],
      "name": "enrollStudent",
      "outputs": [],
      "stateMutability": "nonpayable",
      "type": "function"
    },
    {
      "inputs": [
        {
          "internalType": "string",
          "name": "courseId",
          "type": "string"
        },
        {
          "internalType": "string",
          "name": "sectionId",
          "type": "string"
        }
      ],
      "name": "getAllPendingGrades",
      "outputs": [
        {
          "components": [
            {
              "internalType": "string",
              "name": "courseId",
              "type": "string"
            },
            {
              "internalType": "string",
              "name": "sectionId",
              "type": "string"
            },
            {
              "internalType": "uint8",
              "name": "grade",
              "type": "uint8"
            },
            {
              "internalType": "bool",
              "name": "approved",
              "type": "bool"
            }
          ],
          "internalType": "struct CertiTrust.Grade[]",
          "name": "",
          "type": "tuple[]"
        }
      ],
      "stateMutability": "view",
      "type": "function"
    },
    {
      "inputs": [],
      "name": "getAllStudents",
      "outputs": [
        {
          "components": [
            {
              "internalType": "string",
              "name": "studentId",
              "type": "string"
            },
            {
              "internalType": "string",
              "name": "studentName",
              "type": "string"
            },
            {
              "internalType": "string",
              "name": "enrolledProgram",
              "type": "string"
            },
            {
              "internalType": "uint256",
              "name": "maxCredit",
              "type": "uint256"
            },
            {
              "internalType": "uint256",
              "name": "creditEarned",
              "type": "uint256"
            },
            {
              "internalType": "string",
              "name": "docHash",
              "type": "string"
            }
          ],
          "internalType": "struct CertiTrust.Student[]",
          "name": "",
          "type": "tuple[]"
        }
      ],
      "stateMutability": "view",
      "type": "function"
    },
    {
      "inputs": [
        {
          "internalType": "string",
          "name": "courseId",
          "type": "string"
        },
        {
          "internalType": "string",
          "name": "sectionId",
          "type": "string"
        }
      ],
      "name": "getCourseAndSectionDetails",
      "outputs": [
        {
          "internalType": "string",
          "name": "courseName",
          "type": "string"
        },
        {
          "internalType": "uint256",
          "name": "credit",
          "type": "uint256"
        },
        {
          "internalType": "address",
          "name": "instructor",
          "type": "address"
        },
        {
          "internalType": "uint256",
          "name": "maxStudents",
          "type": "uint256"
        },
        {
          "internalType": "uint256",
          "name": "currentStudents",
          "type": "uint256"
        },
        {
          "internalType": "address[]",
          "name": "studentsAddress",
          "type": "address[]"
        }
      ],
      "stateMutability": "view",
      "type": "function"
    },
    {
      "inputs": [
        {
          "internalType": "string",
          "name": "courseId",
          "type": "string"
        }
      ],
      "name": "getCourseInstructors",
      "outputs": [
        {
          "internalType": "address[]",
          "name": "",
          "type": "address[]"
        }
      ],
      "stateMutability": "view",
      "type": "function"
    },
    {
      "inputs": [
        {
          "internalType": "address",
          "name": "user",
          "type": "address"
        }
      ],
      "name": "getRole",
      "outputs": [
        {
          "components": [
            {
              "internalType": "string",
              "name": "email",
              "type": "string"
            },
            {
              "internalType": "string",
              "name": "userRole",
              "type": "string"
            }
          ],
          "internalType": "struct CertiTrust.Role",
          "name": "",
          "type": "tuple"
        }
      ],
      "stateMutability": "view",
      "type": "function"
    },
    {
      "inputs": [
        {
          "internalType": "string",
          "name": "courseId",
          "type": "string"
        },
        {
          "internalType": "string",
          "name": "sectionId",
          "type": "string"
        }
      ],
      "name": "getSectionStudents",
      "outputs": [
        {
          "internalType": "address[]",
          "name": "",
          "type": "address[]"
        }
      ],
      "stateMutability": "view",
      "type": "function"
    },
    {
      "inputs": [
        {
          "internalType": "address",
          "name": "student",
          "type": "address"
        }
      ],
      "name": "getStudent",
      "outputs": [
        {
          "components": [
            {
              "internalType": "string",
              "name": "studentId",
              "type": "string"
            },
            {
              "internalType": "string",
              "name": "studentName",
              "type": "string"
            },
            {
              "internalType": "string",
              "name": "enrolledProgram",
              "type": "string"
            },
            {
              "internalType": "uint256",
              "name": "maxCredit",
              "type": "uint256"
            },
            {
              "internalType": "uint256",
              "name": "creditEarned",
              "type": "uint256"
            },
            {
              "internalType": "string",
              "name": "docHash",
              "type": "string"
            }
          ],
          "internalType": "struct CertiTrust.Student",
          "name": "",
          "type": "tuple"
        }
      ],
      "stateMutability": "view",
      "type": "function"
    },
    {
      "inputs": [
        {
          "internalType": "address",
          "name": "_initAdmin",
          "type": "address"
        }
      ],
      "name": "initialize",
      "outputs": [],
      "stateMutability": "nonpayable",
      "type": "function"
    },
    {
      "inputs": [
        {
          "internalType": "address",
          "name": "user",
          "type": "address"
        }
      ],
      "name": "isAdmin",
      "outputs": [
        {
          "internalType": "bool",
          "name": "",
          "type": "bool"
        }
      ],
      "stateMutability": "view",
      "type": "function"
    },
    {
      "inputs": [],
      "name": "owner",
      "outputs": [
        {
          "internalType": "address",
          "name": "",
          "type": "address"
        }
      ],
      "stateMutability": "view",
      "type": "function"
    },
    {
      "inputs": [
        {
          "internalType": "address",
          "name": "adminToRemove",
          "type": "address"
        }
      ],
      "name": "removeAdmin",
      "outputs": [],
      "stateMutability": "nonpayable",
      "type": "function"
    },
    {
      "inputs": [
        {
          "internalType": "address",
          "name": "user",
          "type": "address"
        }
      ],
      "name": "revokeRole",
      "outputs": [],
      "stateMutability": "nonpayable",
      "type": "function"
    },
    {
      "inputs": [
        {
          "internalType": "string",
          "name": "",
          "type": "string"
        },
        {
          "internalType": "string",
          "name": "",
          "type": "string"
        }
      ],
      "name": "sections",
      "outputs": [
        {
          "internalType": "string",
          "name": "courseId",
          "type": "string"
        },
        {
          "internalType": "string",
          "name": "sectionId",
          "type": "string"
        },
        {
          "internalType": "address",
          "name": "instructor",
          "type": "address"
        },
        {
          "internalType": "uint256",
          "name": "currentStudents",
          "type": "uint256"
        },
        {
          "internalType": "uint256",
          "name": "maxStudents",
          "type": "uint256"
        }
      ],
      "stateMutability": "view",
      "type": "function"
    },
    {
      "inputs": [
        {
          "internalType": "address",
          "name": "",
          "type": "address"
        }
      ],
      "name": "students",
      "outputs": [
        {
          "internalType": "string",
          "name": "studentId",
          "type": "string"
        },
        {
          "internalType": "string",
          "name": "studentName",
          "type": "string"
        },
        {
          "internalType": "string",
          "name": "enrolledProgram",
          "type": "string"
        },
        {
          "internalType": "uint256",
          "name": "maxCredit",
          "type": "uint256"
        },
        {
          "internalType": "uint256",
          "name": "creditEarned",
          "type": "uint256"
        },
        {
          "internalType": "string",
          "name": "docHash",
          "type": "string"
        }
      ],
      "stateMutability": "view",
      "type": "function"
    },
    {
      "inputs": [
        {
          "internalType": "address",
          "name": "",
          "type": "address"
        }
      ],
      "name": "userRoles",
      "outputs": [
        {
          "internalType": "string",
          "name": "email",
          "type": "string"
        },
        {
          "internalType": "string",
          "name": "userRole",
          "type": "string"
        }
      ],
      "stateMutability": "view",
      "type": "function"
    }
  ],
  "bytecode": "0x6080604052348015600f57600080fd5b50613a198061001f6000396000f3fe608060405234801561001057600080fd5b506004361061018e5760003560e01c806374d5e100116100de578063a6c807a911610097578063e6a852cc11610071578063e6a852cc146103eb578063e9e30927146103fe578063ee809b8f14610413578063fcfb45bf1461042657600080fd5b8063a6c807a9146103a0578063b4964ab9146103c5578063c4d66de8146103d857600080fd5b806374d5e1001461030e57806380e52e3f1461032f5780638da5cb5b146103425780639366114d1461035557806397ef8c3914610368578063a0f6ca091461037b57600080fd5b806344a8ef191161014b5780636b7b44d7116101255780636b7b44d7146102a75780636fa77d6f146102c757806370480275146102da57806370b5038c146102ed57600080fd5b806344a8ef191461025f5780634bf0c2b3146102725780635d1c6dce1461028557600080fd5b806314bfd6d0146101935780631785f53c146101c35780631bedbb3c146101d857806324d7806c146101f857806334b4cf6d1461021b578063442767331461023f575b600080fd5b6101a66101a1366004612d22565b610439565b6040516001600160a01b0390911681526020015b60405180910390f35b6101d66101d1366004612d57565b610463565b005b6101eb6101e6366004612e1c565b6105fb565b6040516101ba9190612ed3565b61020b610206366004612d57565b610999565b60405190151581526020016101ba565b61022e610229366004612e1c565b610a18565b6040516101ba959493929190612f78565b61025261024d366004612d57565b610b8a565b6040516101ba9190612fc4565b6101d661026d366004613006565b610cea565b6101d6610280366004612e1c565b610dcc565b610298610293366004613077565b6111b6565b6040516101ba939291906130b3565b6102ba6102b5366004612d57565b6112f3565b6040516101ba919061315f565b6101d66102d5366004613172565b611528565b6101d66102e8366004612d57565b61184d565b6103016102fb366004613077565b50606090565b6040516101ba9190613247565b61032161031c366004612d57565b61192e565b6040516101ba92919061325a565b6101d661033d366004612d57565b611a5a565b6005546101a6906001600160a01b031681565b6101d661036336600461327f565b611afd565b6101d6610376366004613321565b611db1565b61038e610389366004612e1c565b611fc2565b6040516101ba969594939291906133cb565b6103b36103ae366004612d57565b61222e565b6040516101ba96959493929190613421565b6103016103d3366004612e1c565b612482565b6101d66103e6366004612d57565b61251c565b6103b36103f9366004612d22565b61267c565b6104066126af565b6040516101ba919061347a565b6101d66104213660046134d3565b61296a565b6101d661043436600461354a565b612a31565b6006818154811061044957600080fd5b6000918252602090912001546001600160a01b0316905081565b6005546001600160a01b0316331480610480575061048033610999565b6104a55760405162461bcd60e51b815260040161049c906135c9565b60405180910390fd5b6104ae81610999565b6104fa5760405162461bcd60e51b815260206004820152601760248201527f41646472657373206973206e6f7420616e2061646d696e000000000000000000604482015260640161049c565b60005b6006548110156105f757816001600160a01b031660068281548110610524576105246135f1565b6000918252602090912001546001600160a01b0316036105ef576006805461054e9060019061361d565b8154811061055e5761055e6135f1565b600091825260209091200154600680546001600160a01b03909216918390811061058a5761058a6135f1565b9060005260206000200160006101000a8154816001600160a01b0302191690836001600160a01b0316021790555060068054806105c9576105c9613630565b600082815260209020810160001990810180546001600160a01b03191690550190555050565b6001016104fd565b5050565b6005546060906001600160a01b03163314806106605750336000908152600460205260409081902090517f7c28ed1fd120b543cd193b7ca1fefa0967d37bf2362947960a4f0354cdb025019161065691600190910190613680565b6040518091039020145b61067c5760405162461bcd60e51b815260040161049c906135c9565b6000808460405161068d91906136f5565b90815260405190819003602001902080546106a790613646565b9050116106c65760405162461bcd60e51b815260040161049c90613711565b60006001846040516106d891906136f5565b9081526020016040518091039020836040516106f491906136f5565b9081526020016040518091039020600101805461071090613646565b9050116107535760405162461bcd60e51b815260206004820152601160248201527014d958dd1a5bdb881b9bdd08199bdd5b99607a1b604482015260640161049c565b600060018460405161076591906136f5565b90815260200160405180910390208360405161078191906136f5565b90815260200160405180910390209050600081600501805490506001600160401b038111156107b2576107b2612d79565b60405190808252806020026020018201604052801561080757816020015b6040805160808101825260608082526020820181905260009282018390528101919091528152602001906001900390816107d05790505b5090506000805b60058401548110156108cf576000846005018281548110610831576108316135f1565b60009182526020808320909101546001600160a01b031680835260068801909152604090912060028101549192509060ff610100909104166108c557604080516080810182528a8152602081018a9052600283015460ff16918101919091526000606082015285518690869081106108ab576108ab6135f1565b602002602001018190525083806108c19061373b565b9450505b505060010161080e565b506000816001600160401b038111156108ea576108ea612d79565b60405190808252806020026020018201604052801561093f57816020015b6040805160808101825260608082526020820181905260009282018390528101919091528152602001906001900390816109085790505b50905060005b8281101561098c5783818151811061095f5761095f6135f1565b6020026020010151828281518110610979576109796135f1565b6020908102919091010152600101610945565b5093505050505b92915050565b6005546000906001600160a01b03908116908316036109ba57506001919050565b60005b600654811015610a0f57826001600160a01b0316600682815481106109e4576109e46135f1565b6000918252602090912001546001600160a01b031603610a075750600192915050565b6001016109bd565b50600092915050565b81516020818401810180516001825292820194820194909420919093528151808301840180519281529084019290930191909120915280548190610a5b90613646565b80601f0160208091040260200160405190810160405280929190818152602001828054610a8790613646565b8015610ad45780601f10610aa957610100808354040283529160200191610ad4565b820191906000526020600020905b815481529060010190602001808311610ab757829003601f168201915b505050505090806001018054610ae990613646565b80601f0160208091040260200160405190810160405280929190818152602001828054610b1590613646565b8015610b625780601f10610b3757610100808354040283529160200191610b62565b820191906000526020600020905b815481529060010190602001808311610b4557829003601f168201915b505050506002830154600384015460049094015492936001600160a01b039091169290915085565b60408051808201909152606080825260208201526001600160a01b038216600090815260046020526040908190208151808301909252805482908290610bcf90613646565b80601f0160208091040260200160405190810160405280929190818152602001828054610bfb90613646565b8015610c485780601f10610c1d57610100808354040283529160200191610c48565b820191906000526020600020905b815481529060010190602001808311610c2b57829003601f168201915b50505050508152602001600182018054610c6190613646565b80601f0160208091040260200160405190810160405280929190818152602001828054610c8d90613646565b8015610cda5780601f10610caf57610100808354040283529160200191610cda565b820191906000526020600020905b815481529060010190602001808311610cbd57829003601f168201915b5050505050815250509050919050565b6005546001600160a01b0316331480610d075750610d0733610999565b610d235760405162461bcd60e51b815260040161049c906135c9565b604051806060016040528084815260200183815260200182815250600084604051610d4e91906136f5565b90815260405190819003602001902081518190610d6b90826137a0565b5060208201516001820190610d8090826137a0565b50604091820151600290910155517fffd03aff0fabd06b66d1b05d6f233d28748e0b9176f6589b827565f5788ca73790610dbf908590859085906130b3565b60405180910390a1505050565b336000908152600460205260409081902090517fc951d7098b66ba0b8b77265b6e9cf0e187d73125a42bcd0061b09a68be42181091610e1091600190910190613680565b604051809103902014610e355760405162461bcd60e51b815260040161049c906135c9565b6000600183604051610e4791906136f5565b908152602001604051809103902082604051610e6391906136f5565b9081526020016040518091039020905060005b6005820154811015610f0b57336001600160a01b0316826005018281548110610ea157610ea16135f1565b6000918252602090912001546001600160a01b031603610f035760405162461bcd60e51b815260206004820152601860248201527f53747564656e7420616c726561647920656e726f6c6c65640000000000000000604482015260640161049c565b600101610e76565b50600183604051610f1c91906136f5565b908152602001604051809103902082604051610f3891906136f5565b908152602001604051809103902060040154600184604051610f5a91906136f5565b908152602001604051809103902083604051610f7691906136f5565b90815260200160405180910390206003015410610fc45760405162461bcd60e51b815260206004820152600c60248201526b14d958dd1a5bdb88199d5b1b60a21b604482015260640161049c565b60008084604051610fd591906136f5565b9081526040519081900360200190208054610fef90613646565b90501161100e5760405162461bcd60e51b815260040161049c90613711565b60006001600160a01b031660018460405161102991906136f5565b90815260200160405180910390208360405161104591906136f5565b908152604051908190036020019020600201546001600160a01b0316036110c35760405162461bcd60e51b815260206004820152602c60248201527f53656374696f6e206e6f7420666f756e64206f7220696e7374727563746f722060448201526b1b9bdd08185cdcda59db995960a21b606482015260840161049c565b6001836040516110d391906136f5565b9081526020016040518091039020826040516110ef91906136f5565b90815260405190819003602090810182206005018054600181810183556000928352929091200180546001600160a01b031916331790559081906111349086906136f5565b90815260200160405180910390208360405161115091906136f5565b908152602001604051809103902060030160008282546111709190613861565b909155505060405133907f577807883b3cd38de5f743fffd9839aade61cf7ca68079ca87800e789d97f71f906111a9908690869061325a565b60405180910390a2505050565b80516020818301810180516000825292820191909301209152805481906111dc90613646565b80601f016020809104026020016040519081016040528092919081815260200182805461120890613646565b80156112555780601f1061122a57610100808354040283529160200191611255565b820191906000526020600020905b81548152906001019060200180831161123857829003601f168201915b50505050509080600101805461126a90613646565b80601f016020809104026020016040519081016040528092919081815260200182805461129690613646565b80156112e35780601f106112b8576101008083540402835291602001916112e3565b820191906000526020600020905b8154815290600101906020018083116112c657829003601f168201915b5050505050908060020154905083565b61132c6040518060c001604052806060815260200160608152602001606081526020016000815260200160008152602001606081525090565b6001600160a01b03821660009081526002602052604090819020815160c0810190925280548290829061135e90613646565b80601f016020809104026020016040519081016040528092919081815260200182805461138a90613646565b80156113d75780601f106113ac576101008083540402835291602001916113d7565b820191906000526020600020905b8154815290600101906020018083116113ba57829003601f168201915b505050505081526020016001820180546113f090613646565b80601f016020809104026020016040519081016040528092919081815260200182805461141c90613646565b80156114695780601f1061143e57610100808354040283529160200191611469565b820191906000526020600020905b81548152906001019060200180831161144c57829003601f168201915b5050505050815260200160028201805461148290613646565b80601f01602080910402602001604051908101604052809291908181526020018280546114ae90613646565b80156114fb5780601f106114d0576101008083540402835291602001916114fb565b820191906000526020600020905b8154815290600101906020018083116114de57829003601f168201915b505050505081526020016003820154815260200160048201548152602001600582018054610c6190613646565b336000908152600460205260409081902090517fc74249daef74ae274b962ac43d0269d83eca7ee956a5e5d9d98b96ea1416b0ff9161156c91600190910190613680565b6040518091039020146115915760405162461bcd60e51b815260040161049c906135c9565b60006001846040516115a391906136f5565b9081526020016040518091039020836040516115bf91906136f5565b9081526020016040518091039020905060005b600582015481101561165e57856001600160a01b03168260050182815481106115fd576115fd6135f1565b6000918252602090912001546001600160a01b0316146116565760405162461bcd60e51b815260206004820152601460248201527314dd1d59195b9d081b9bdd08195b9c9bdb1b195960621b604482015260640161049c565b6001016115d2565b506000808560405161167091906136f5565b908152604051908190036020019020805461168a90613646565b9050116116a95760405162461bcd60e51b815260040161049c90613711565b336001600160a01b03166001856040516116c391906136f5565b9081526020016040518091039020846040516116df91906136f5565b908152604051908190036020019020600201546001600160a01b0316146117375760405162461bcd60e51b815260206004820152600c60248201526b155b985d5d1a1bdc9a5e995960a21b604482015260640161049c565b604080516080810182528581526020810185905260ff84168183015260006060820152905160019061176a9087906136f5565b90815260200160405180910390208460405161178691906136f5565b90815260408051602092819003830190206001600160a01b038916600090815260069091019092529020815181906117be90826137a0565b50602082015160018201906117d390826137a0565b506040828101516002909201805460609094015115156101000261ffff1990941660ff90931692909217929092179055516001600160a01b038616907fc4fb4171ee27f61730081ae48306ca393f338d9b3fe5a3dc9bb1d24bb7a4ec059061183e9087908690613874565b60405180910390a25050505050565b6005546001600160a01b031633148061186a575061186a33610999565b6118865760405162461bcd60e51b815260040161049c906135c9565b61188f81610999565b156118dc5760405162461bcd60e51b815260206004820152601b60248201527f4164647265737320697320616c726561647920616e2061646d696e0000000000604482015260640161049c565b600680546001810182556000919091527ff652222313e28459528d920b65115c16c04f3efc82aaedc97be59f3f377c0d3f0180546001600160a01b0319166001600160a01b0392909216919091179055565b60046020526000908152604090208054819061194990613646565b80601f016020809104026020016040519081016040528092919081815260200182805461197590613646565b80156119c25780601f10611997576101008083540402835291602001916119c2565b820191906000526020600020905b8154815290600101906020018083116119a557829003601f168201915b5050505050908060010180546119d790613646565b80601f0160208091040260200160405190810160405280929190818152602001828054611a0390613646565b8015611a505780601f10611a2557610100808354040283529160200191611a50565b820191906000526020600020905b815481529060010190602001808311611a3357829003601f168201915b5050505050905082565b6005546001600160a01b0316331480611a775750611a7733610999565b611a935760405162461bcd60e51b815260040161049c906135c9565b6001600160a01b038116600090815260046020526040812090611ab68282612ccc565b611ac4600183016000612ccc565b50506040516001600160a01b038216907f6107a4a5447a4208ba14e3ec240bccf0a93828124ccf501af04601031070b18390600090a250565b336000908152600460205260409081902090517f7c28ed1fd120b543cd193b7ca1fefa0967d37bf2362947960a4f0354cdb0250191611b4191600190910190613680565b604051809103902014611b665760405162461bcd60e51b815260040161049c906135c9565b60008084604051611b7791906136f5565b9081526040519081900360200190208054611b9190613646565b905011611bb05760405162461bcd60e51b815260040161049c90613711565b6000600184604051611bc291906136f5565b908152602001604051809103902083604051611bde91906136f5565b90815260200160405180910390206006016000866001600160a01b03166001600160a01b0316815260200190815260200160002090508060020160019054906101000a900460ff1615611c6c5760405162461bcd60e51b815260206004820152601660248201527511dc98591948185b1c9958591e48185c1c1c9bdd995960521b604482015260640161049c565b60028101805461ff001916610100179055604051600090611c8e9086906136f5565b90815260200160405180910390206002015460026000876001600160a01b03166001600160a01b031681526020019081526020016000206004016000828254611cd79190613861565b90915550506001600160a01b0385166000908152600260205260409020600501611d0183826137a0565b5060028101546040516001600160a01b038716917f153690fde72e9cd28eff5a476456fae7d43b978c88d5dcbd81140aa3e684ecd891611d4a91889160ff909116908790613899565b60405180910390a26001600160a01b038516600090815260026020526040902060040154608c11611daa576040516001600160a01b038616907f415ffddd5c0c3058e868a0b47e0a33db469bd6c5193ebcb5a4c1337f36acf52890600090a25b5050505050565b6005546001600160a01b0316331480611dce5750611dce33610999565b611dea5760405162461bcd60e51b815260040161049c906135c9565b6040805160c0810182528581526020808201869052818301859052606082018490526000608083018190528351808301855281815260a08401526001600160a01b038916815260029091529190912081518190611e4790826137a0565b5060208201516001820190611e5c90826137a0565b5060408201516002820190611e7190826137a0565b50606082015160038201556080820151600482015560a08201516005820190611e9a90826137a0565b5050506001600160a01b0385166000908152600260205260408120600380546001810182559252906006027fc2575a0e9e593c00f959f8c92f12db2869c3395a3b0502d05e2516446f71f85b0180611ef283826138d1565b50600181810190611f05908401826138d1565b50600281810190611f18908401826138d1565b50600382015481600301556004820154816004015560058201816005019081611f4191906138d1565b5050604080516060810182526000818301818152825282518084018452600781526614d5155111539560ca1b602082810191909152808401919091526001600160a01b038a16825260049052919091208151919250908190611fa390826137a0565b5060208201516001820190611fb890826137a0565b5050505050505050565b6060600080600080606060008089604051611fdd91906136f5565b9081526040519081900360200190208054611ff790613646565b9050116120165760405162461bcd60e51b815260040161049c90613711565b600060018960405161202891906136f5565b90815260200160405180910390208860405161204491906136f5565b9081526020016040518091039020600101805461206090613646565b9050116120a35760405162461bcd60e51b815260206004820152601160248201527014d958dd1a5bdb881b9bdd08199bdd5b99607a1b604482015260640161049c565b600080896040516120b491906136f5565b90815260200160405180910390209050600060018a6040516120d691906136f5565b9081526020016040518091039020896040516120f291906136f5565b908152604051908190036020019020600280840154908201546004830154600584018054600188018054969750956001600160a01b0390941693909190869061213a90613646565b80601f016020809104026020016040519081016040528092919081815260200182805461216690613646565b80156121b35780601f10612188576101008083540402835291602001916121b3565b820191906000526020600020905b81548152906001019060200180831161219657829003601f168201915b505050505095508080548060200260200160405190810160405280929190818152602001828054801561220f57602002820191906000526020600020905b81546001600160a01b031681526001909101906020018083116121f1575b5050505050905097509750975097509750975050509295509295509295565b60026020526000908152604090208054819061224990613646565b80601f016020809104026020016040519081016040528092919081815260200182805461227590613646565b80156122c25780601f10612297576101008083540402835291602001916122c2565b820191906000526020600020905b8154815290600101906020018083116122a557829003601f168201915b5050505050908060010180546122d790613646565b80601f016020809104026020016040519081016040528092919081815260200182805461230390613646565b80156123505780601f1061232557610100808354040283529160200191612350565b820191906000526020600020905b81548152906001019060200180831161233357829003601f168201915b50505050509080600201805461236590613646565b80601f016020809104026020016040519081016040528092919081815260200182805461239190613646565b80156123de5780601f106123b3576101008083540402835291602001916123de565b820191906000526020600020905b8154815290600101906020018083116123c157829003601f168201915b5050505050908060030154908060040154908060050180546123ff90613646565b80601f016020809104026020016040519081016040528092919081815260200182805461242b90613646565b80156124785780601f1061244d57610100808354040283529160200191612478565b820191906000526020600020905b81548152906001019060200180831161245b57829003601f168201915b5050505050905086565b606060018360405161249491906136f5565b9081526020016040518091039020826040516124b091906136f5565b908152604080519182900360209081018320600501805480830285018301909352828452919083018282801561250f57602002820191906000526020600020905b81546001600160a01b031681526001909101906020018083116124f1575b5050505050905092915050565b7ff0c57e16840df040f15088dc2f81fe391c3923bec73e23a9662efc9c229c6a008054600160401b810460ff1615906001600160401b03166000811580156125615750825b90506000826001600160401b0316600114801561257d5750303b155b90508115801561258b575080155b156125a95760405163f92ee8a960e01b815260040160405180910390fd5b845467ffffffffffffffff1916600117855583156125d357845460ff60401b1916600160401b1785555b600580546001600160a01b0388166001600160a01b03199182168117909255600680546001810182556000919091527ff652222313e28459528d920b65115c16c04f3efc82aaedc97be59f3f377c0d3f0180549091169091179055831561267457845460ff60401b19168555604051600181527fc7f505b2f371ae2175ee4913f4499e1f2633a7b5936321eed1cdaeb6115181d29060200160405180910390a15b505050505050565b6003818154811061268c57600080fd5b906000526020600020906006020160009150905080600001805461224990613646565b60606003805480602002602001604051908101604052809291908181526020016000905b8282101561296157838290600052602060002090600602016040518060c001604052908160008201805461270690613646565b80601f016020809104026020016040519081016040528092919081815260200182805461273290613646565b801561277f5780601f106127545761010080835404028352916020019161277f565b820191906000526020600020905b81548152906001019060200180831161276257829003601f168201915b5050505050815260200160018201805461279890613646565b80601f01602080910402602001604051908101604052809291908181526020018280546127c490613646565b80156128115780601f106127e657610100808354040283529160200191612811565b820191906000526020600020905b8154815290600101906020018083116127f457829003601f168201915b5050505050815260200160028201805461282a90613646565b80601f016020809104026020016040519081016040528092919081815260200182805461285690613646565b80156128a35780601f10612878576101008083540402835291602001916128a3565b820191906000526020600020905b81548152906001019060200180831161288657829003601f168201915b5050505050815260200160038201548152602001600482015481526020016005820180546128d090613646565b80601f01602080910402602001604051908101604052809291908181526020018280546128fc90613646565b80156129495780601f1061291e57610100808354040283529160200191612949565b820191906000526020600020905b81548152906001019060200180831161292c57829003601f168201915b505050505081525050815260200190600101906126d3565b50505050905090565b6005546001600160a01b0316331480612987575061298733610999565b6129a35760405162461bcd60e51b815260040161049c906135c9565b60408051808201825283815260208082018490526001600160a01b0386166000908152600490915291909120815181906129dd90826137a0565b50602082015160018201906129f290826137a0565b50905050826001600160a01b03167f4dffda660d43eda6621c4674f4caefef756adb7bed9351cffea4eea3e59639ae83836040516111a992919061325a565b6005546001600160a01b0316331480612a4e5750612a4e33610999565b612a6a5760405162461bcd60e51b815260040161049c906135c9565b60008085604051612a7b91906136f5565b9081526040519081900360200190208054612a9590613646565b905011612ab45760405162461bcd60e51b815260040161049c90613711565b60006001600160a01b0316600185604051612acf91906136f5565b908152602001604051809103902084604051612aeb91906136f5565b908152604051908190036020019020600201546001600160a01b031614612b545760405162461bcd60e51b815260206004820152601860248201527f53656374696f6e20616c72656164792061737369676e65640000000000000000604482015260640161049c565b83600185604051612b6591906136f5565b908152602001604051809103902084604051612b8191906136f5565b90815260405190819003602001902090612b9b90826137a0565b5082600185604051612bad91906136f5565b908152602001604051809103902084604051612bc991906136f5565b90815260200160405180910390206001019081612be691906137a0565b5081600185604051612bf891906136f5565b908152602001604051809103902084604051612c1491906136f5565b908152602001604051809103902060020160006101000a8154816001600160a01b0302191690836001600160a01b0316021790555080600185604051612c5a91906136f5565b908152602001604051809103902084604051612c7691906136f5565b9081526020016040518091039020600401819055507f4f4aef3fc520a91e3bc56f58f6bdc90c6c4a0a126276784555e6d7a17e79b8a6848484604051612cbe939291906139a5565b60405180910390a150505050565b508054612cd890613646565b6000825580601f10612ce8575050565b601f016020900490600052602060002090810190612d069190612d09565b50565b5b80821115612d1e5760008155600101612d0a565b5090565b600060208284031215612d3457600080fd5b5035919050565b80356001600160a01b0381168114612d5257600080fd5b919050565b600060208284031215612d6957600080fd5b612d7282612d3b565b9392505050565b634e487b7160e01b600052604160045260246000fd5b600082601f830112612da057600080fd5b81356001600160401b03811115612db957612db9612d79565b604051601f8201601f19908116603f011681016001600160401b0381118282101715612de757612de7612d79565b604052818152838201602001851015612dff57600080fd5b816020850160208301376000918101602001919091529392505050565b60008060408385031215612e2f57600080fd5b82356001600160401b03811115612e4557600080fd5b612e5185828601612d8f565b92505060208301356001600160401b03811115612e6d57600080fd5b612e7985828601612d8f565b9150509250929050565b60005b83811015612e9e578181015183820152602001612e86565b50506000910152565b60008151808452612ebf816020860160208601612e83565b601f01601f19169290920160200192915050565b6000602082016020835280845180835260408501915060408160051b86010192506020860160005b82811015612f6c57603f198786030184528151805160808752612f216080880182612ea7565b905060208201518782036020890152612f3a8282612ea7565b60408481015160ff16908a01526060938401511515939098019290925250506020938401939190910190600101612efb565b50929695505050505050565b60a081526000612f8b60a0830188612ea7565b8281036020840152612f9d8188612ea7565b6001600160a01b039690961660408401525050606081019290925260809091015292915050565b602081526000825160406020840152612fe06060840182612ea7565b90506020840151601f19848303016040850152612ffd8282612ea7565b95945050505050565b60008060006060848603121561301b57600080fd5b83356001600160401b0381111561303157600080fd5b61303d86828701612d8f565b93505060208401356001600160401b0381111561305957600080fd5b61306586828701612d8f565b93969395505050506040919091013590565b60006020828403121561308957600080fd5b81356001600160401b0381111561309f57600080fd5b6130ab84828501612d8f565b949350505050565b6060815260006130c66060830186612ea7565b82810360208401526130d88186612ea7565b915050826040830152949350505050565b6000815160c084526130fe60c0850182612ea7565b9050602083015184820360208601526131178282612ea7565b915050604083015184820360408601526131318282612ea7565b915050606083015160608501526080830151608085015260a083015184820360a0860152612ffd8282612ea7565b602081526000612d7260208301846130e9565b6000806000806080858703121561318857600080fd5b61319185612d3b565b935060208501356001600160401b038111156131ac57600080fd5b6131b887828801612d8f565b93505060408501356001600160401b038111156131d457600080fd5b6131e087828801612d8f565b925050606085013560ff811681146131f757600080fd5b939692955090935050565b600081518084526020840193506020830160005b8281101561323d5781516001600160a01b0316865260209586019590910190600101613216565b5093949350505050565b602081526000612d726020830184613202565b60408152600061326d6040830185612ea7565b8281036020840152612ffd8185612ea7565b6000806000806080858703121561329557600080fd5b61329e85612d3b565b935060208501356001600160401b038111156132b957600080fd5b6132c587828801612d8f565b93505060408501356001600160401b038111156132e157600080fd5b6132ed87828801612d8f565b92505060608501356001600160401b0381111561330957600080fd5b61331587828801612d8f565b91505092959194509250565b600080600080600060a0868803121561333957600080fd5b61334286612d3b565b945060208601356001600160401b0381111561335d57600080fd5b61336988828901612d8f565b94505060408601356001600160401b0381111561338557600080fd5b61339188828901612d8f565b93505060608601356001600160401b038111156133ad57600080fd5b6133b988828901612d8f565b95989497509295608001359392505050565b60c0815260006133de60c0830189612ea7565b602083018890526001600160a01b0387166040840152606083018690526080830185905282810360a08401526134148185613202565b9998505050505050505050565b60c08152600061343460c0830189612ea7565b82810360208401526134468189612ea7565b9050828103604084015261345a8188612ea7565b905085606084015284608084015282810360a08401526134148185612ea7565b6000602082016020835280845180835260408501915060408160051b86010192506020860160005b82811015612f6c57603f198786030184526134be8583516130e9565b945060209384019391909101906001016134a2565b6000806000606084860312156134e857600080fd5b6134f184612d3b565b925060208401356001600160401b0381111561350c57600080fd5b61351886828701612d8f565b92505060408401356001600160401b0381111561353457600080fd5b61354086828701612d8f565b9150509250925092565b6000806000806080858703121561356057600080fd5b84356001600160401b0381111561357657600080fd5b61358287828801612d8f565b94505060208501356001600160401b0381111561359e57600080fd5b6135aa87828801612d8f565b9350506135b960408601612d3b565b9396929550929360600135925050565b6020808252600e908201526d139bdd08185d5d1a1bdc9a5e995960921b604082015260600190565b634e487b7160e01b600052603260045260246000fd5b634e487b7160e01b600052601160045260246000fd5b8181038181111561099357610993613607565b634e487b7160e01b600052603160045260246000fd5b600181811c9082168061365a57607f821691505b60208210810361367a57634e487b7160e01b600052602260045260246000fd5b50919050565b600080835461368e81613646565b6001821680156136a557600181146136ba576136ea565b60ff19831686528115158202860193506136ea565b86600052602060002060005b838110156136e2578154888201526001909101906020016136c6565b505081860193505b509195945050505050565b60008251613707818460208701612e83565b9190910192915050565b60208082526010908201526f10dbdd5c9cd9481b9bdd08199bdd5b9960821b604082015260600190565b60006001820161374d5761374d613607565b5060010190565b601f82111561379b57806000526020600020601f840160051c8101602085101561377b5750805b601f840160051c820191505b81811015611daa5760008155600101613787565b505050565b81516001600160401b038111156137b9576137b9612d79565b6137cd816137c78454613646565b84613754565b6020601f82116001811461380457600083156137e95750848201515b600184901b600019600386901b1c198216175b855550611daa565b600084815260208120601f198516915b828110156138345787850151825560209485019460019092019101613814565b50848210156138525786840151600019600387901b60f8161c191681555b50505050600190811b01905550565b8082018082111561099357610993613607565b6040815260006138876040830185612ea7565b905060ff831660208301529392505050565b6060815260006138ac6060830186612ea7565b60ff8516602084015282810360408401526138c78185612ea7565b9695505050505050565b8181036138dc575050565b6138e68254613646565b6001600160401b038111156138fd576138fd612d79565b61390b816137c78454613646565b6000601f82116001811461393d57600083156137e9575081850154600184901b600019600386901b1c198216176137fc565b600085815260209020601f19841690600086815260209020845b838110156139775782860154825560019586019590910190602001613957565b50858310156139955781850154600019600388901b60f8161c191681555b5050505050600190811b01905550565b6060815260006139b86060830186612ea7565b82810360208401526139ca8186612ea7565b91505060018060a01b038316604083015294935050505056fea26469706673582212201a733860f1d201e6ef21d8a2a5aa28f4e6dc28d115d93abe65bbc26b99cf9afc64736f6c634300081b0033",
  "linkReferences": {},
  "deployedLinkReferences": {}
}